{
  "_format": "hh-sol-artifact-1",
  "contractName": "Raffle",
  "sourceName": "contracts/Raffle.sol",
  "abi": [
    {
      "inputs": [
        {
          "internalType": "address",
          "name": "vrfCoordinatorV2",
          "type": "address"
        },
        {
          "internalType": "uint256",
          "name": "enteranceFee",
          "type": "uint256"
        },
        {
          "internalType": "bytes32",
          "name": "gas_lane",
          "type": "bytes32"
        },
        {
          "internalType": "uint64",
          "name": "subID",
          "type": "uint64"
        },
        {
          "internalType": "uint32",
          "name": "gaslimit",
          "type": "uint32"
        },
        {
          "internalType": "uint256",
          "name": "interval",
          "type": "uint256"
        }
      ],
      "stateMutability": "nonpayable",
      "type": "constructor"
    },
    {
      "inputs": [],
      "name": "Not_Enough_Eth_To_Participate",
      "type": "error"
    },
    {
      "inputs": [
        {
          "internalType": "address",
          "name": "have",
          "type": "address"
        },
        {
          "internalType": "address",
          "name": "want",
          "type": "address"
        }
      ],
      "name": "OnlyCoordinatorCanFulfill",
      "type": "error"
    },
    {
      "inputs": [],
      "name": "Raffle_TransferFailed",
      "type": "error"
    },
    {
      "inputs": [
        {
          "internalType": "uint256",
          "name": "currentBalance",
          "type": "uint256"
        },
        {
          "internalType": "uint256",
          "name": "numPlayers",
          "type": "uint256"
        },
        {
          "internalType": "uint256",
          "name": "RaffleState",
          "type": "uint256"
        }
      ],
      "name": "Raffle_UpkeepNotNeeded",
      "type": "error"
    },
    {
      "inputs": [],
      "name": "Raffle__NotOpen",
      "type": "error"
    },
    {
      "anonymous": false,
      "inputs": [
        {
          "indexed": true,
          "internalType": "address",
          "name": "recentWinner",
          "type": "address"
        }
      ],
      "name": "WinnerPicked",
      "type": "event"
    },
    {
      "anonymous": false,
      "inputs": [
        {
          "indexed": true,
          "internalType": "address",
          "name": "player",
          "type": "address"
        }
      ],
      "name": "raffleEnter",
      "type": "event"
    },
    {
      "anonymous": false,
      "inputs": [
        {
          "indexed": true,
          "internalType": "uint256",
          "name": "requestId",
          "type": "uint256"
        }
      ],
      "name": "requestedRaffleWinner",
      "type": "event"
    },
    {
      "inputs": [
        {
          "internalType": "bytes",
          "name": "",
          "type": "bytes"
        }
      ],
      "name": "checkUpkeep",
      "outputs": [
        {
          "internalType": "bool",
          "name": "upkeepNeeded",
          "type": "bool"
        },
        {
          "internalType": "bytes",
          "name": "",
          "type": "bytes"
        }
      ],
      "stateMutability": "nonpayable",
      "type": "function"
    },
    {
      "inputs": [],
      "name": "enterRaffle",
      "outputs": [],
      "stateMutability": "payable",
      "type": "function"
    },
    {
      "inputs": [],
      "name": "getEntranceFee",
      "outputs": [
        {
          "internalType": "uint256",
          "name": "",
          "type": "uint256"
        }
      ],
      "stateMutability": "view",
      "type": "function"
    },
    {
      "inputs": [],
      "name": "getInterval",
      "outputs": [
        {
          "internalType": "uint256",
          "name": "",
          "type": "uint256"
        }
      ],
      "stateMutability": "view",
      "type": "function"
    },
    {
      "inputs": [],
      "name": "getNumOfPlayers",
      "outputs": [
        {
          "internalType": "uint256",
          "name": "",
          "type": "uint256"
        }
      ],
      "stateMutability": "view",
      "type": "function"
    },
    {
      "inputs": [],
      "name": "getNumWords",
      "outputs": [
        {
          "internalType": "uint256",
          "name": "",
          "type": "uint256"
        }
      ],
      "stateMutability": "pure",
      "type": "function"
    },
    {
      "inputs": [
        {
          "internalType": "uint256",
          "name": "_index",
          "type": "uint256"
        }
      ],
      "name": "getPlayer",
      "outputs": [
        {
          "internalType": "address",
          "name": "",
          "type": "address"
        }
      ],
      "stateMutability": "view",
      "type": "function"
    },
    {
      "inputs": [],
      "name": "getPreviousTimeStamp",
      "outputs": [
        {
          "internalType": "uint256",
          "name": "",
          "type": "uint256"
        }
      ],
      "stateMutability": "view",
      "type": "function"
    },
    {
      "inputs": [],
      "name": "getRaffleState",
      "outputs": [
        {
          "internalType": "enum Raffle.RaffleState",
          "name": "",
          "type": "uint8"
        }
      ],
      "stateMutability": "view",
      "type": "function"
    },
    {
      "inputs": [],
      "name": "getRecentWinner",
      "outputs": [
        {
          "internalType": "address",
          "name": "",
          "type": "address"
        }
      ],
      "stateMutability": "view",
      "type": "function"
    },
    {
      "inputs": [
        {
          "internalType": "bytes",
          "name": "",
          "type": "bytes"
        }
      ],
      "name": "performUpkeep",
      "outputs": [],
      "stateMutability": "nonpayable",
      "type": "function"
    },
    {
      "inputs": [
        {
          "internalType": "uint256",
          "name": "requestId",
          "type": "uint256"
        },
        {
          "internalType": "uint256[]",
          "name": "randomWords",
          "type": "uint256[]"
        }
      ],
      "name": "rawFulfillRandomWords",
      "outputs": [],
      "stateMutability": "nonpayable",
      "type": "function"
    }
  ],
  "bytecode": "0x6101606040523480156200001257600080fd5b50604051620017e5380380620017e58339818101604052810190620000389190620001ad565b858073ffffffffffffffffffffffffffffffffffffffff1660808173ffffffffffffffffffffffffffffffffffffffff1660601b81525050508460a081815250508573ffffffffffffffffffffffffffffffffffffffff1660c08173ffffffffffffffffffffffffffffffffffffffff1660601b815250508360e081815250508267ffffffffffffffff166101008167ffffffffffffffff1660c01b815250508163ffffffff166101208163ffffffff1660e01b815250506000600160156101000a81548160ff02191690836001811115620001195762000118620002b5565b5b0217905550426002819055508061014081815250505050505050506200036b565b6000815190506200014b81620002e9565b92915050565b600081519050620001628162000303565b92915050565b60008151905062000179816200031d565b92915050565b600081519050620001908162000337565b92915050565b600081519050620001a78162000351565b92915050565b60008060008060008060c08789031215620001cd57620001cc620002e4565b5b6000620001dd89828a016200013a565b9650506020620001f089828a0162000168565b95505060406200020389828a0162000151565b94505060606200021689828a0162000196565b93505060806200022989828a016200017f565b92505060a06200023c89828a0162000168565b9150509295509295509295565b6000620002568262000267565b9050919050565b6000819050919050565b600073ffffffffffffffffffffffffffffffffffffffff82169050919050565b6000819050919050565b600063ffffffff82169050919050565b600067ffffffffffffffff82169050919050565b7f4e487b7100000000000000000000000000000000000000000000000000000000600052602160045260246000fd5b600080fd5b620002f48162000249565b81146200030057600080fd5b50565b6200030e816200025d565b81146200031a57600080fd5b50565b620003288162000287565b81146200033457600080fd5b50565b620003428162000291565b81146200034e57600080fd5b50565b6200035c81620002a1565b81146200036857600080fd5b50565b60805160601c60a05160c05160601c60e0516101005160c01c6101205160e01c610140516113fe620003e7600039600081816107a4015261081c015260006106550152600061063201526000610611015260006105d50152600081816102b401526103b10152600081816102f1015261034501526113fe6000f3fe6080604052600436106100a75760003560e01c806353a2c19a1161006457806353a2c19a14610189578063565429de146101b45780636e04ff0d146101df57806390272d5c1461021d57806391ad27b414610248578063e55ae4e814610273576100a7565b806309bc33a7146100ac578063115cbaf5146100d75780631fe543e3146101025780632cfcc5391461012b5780634585e33b14610135578063473f1ddc1461015e575b600080fd5b3480156100b857600080fd5b506100c16102b0565b6040516100ce9190611004565b60405180910390f35b3480156100e357600080fd5b506100ec6102d8565b6040516100f99190610fe9565b60405180910390f35b34801561010e57600080fd5b5061012960048036038101906101249190610ddd565b6102ef565b005b6101336103af565b005b34801561014157600080fd5b5061015c60048036038101906101579190610ced565b61051e565b005b34801561016a57600080fd5b5061017361071d565b6040516101809190610f22565b60405180910390f35b34801561019557600080fd5b5061019e610747565b6040516101ab9190611004565b60405180910390f35b3480156101c057600080fd5b506101c9610756565b6040516101d69190611004565b60405180910390f35b3480156101eb57600080fd5b5061020660048036038101906102019190610d3a565b610762565b604051610214929190610f66565b60405180910390f35b34801561022957600080fd5b5061023261080e565b60405161023f9190611004565b60405180910390f35b34801561025457600080fd5b5061025d610818565b60405161026a9190611004565b60405180910390f35b34801561027f57600080fd5b5061029a60048036038101906102959190610d83565b610840565b6040516102a79190610f22565b60405180910390f35b60007f0000000000000000000000000000000000000000000000000000000000000000905090565b6000600160159054906101000a900460ff16905090565b7f000000000000000000000000000000000000000000000000000000000000000073ffffffffffffffffffffffffffffffffffffffff163373ffffffffffffffffffffffffffffffffffffffff16146103a157337f00000000000000000000000000000000000000000000000000000000000000006040517f1cf993f4000000000000000000000000000000000000000000000000000000008152600401610398929190610f3d565b60405180910390fd5b6103ab8282610887565b5050565b7f0000000000000000000000000000000000000000000000000000000000000000341015610409576040517f52c54f4e00000000000000000000000000000000000000000000000000000000815260040160405180910390fd5b6000600181111561041d5761041c6112de565b5b600160159054906101000a900460ff16600181111561043f5761043e6112de565b5b14610476576040517f1425571c00000000000000000000000000000000000000000000000000000000815260040160405180910390fd5b6000339080600181540180825580915050600190039060005260206000200160009091909190916101000a81548173ffffffffffffffffffffffffffffffffffffffff021916908373ffffffffffffffffffffffffffffffffffffffff1602179055503373ffffffffffffffffffffffffffffffffffffffff167f742d070bf0f3edace132a9da8ba725e8cf99c478869cee7f673ed6085e2f8e6460405160405180910390a2565b600061053860405180602001604052806000815250610762565b509050806105a75747600080549050600160159054906101000a900460ff166001811115610569576105686112de565b5b6040517fe059521b00000000000000000000000000000000000000000000000000000000815260040161059e9392919061101f565b60405180910390fd5b60018060156101000a81548160ff021916908360018111156105cc576105cb6112de565b5b021790555060007f000000000000000000000000000000000000000000000000000000000000000073ffffffffffffffffffffffffffffffffffffffff16635d3b1d307f00000000000000000000000000000000000000000000000000000000000000007f000000000000000000000000000000000000000000000000000000000000000060037f000000000000000000000000000000000000000000000000000000000000000060016040518663ffffffff1660e01b8152600401610696959493929190610f96565b602060405180830381600087803b1580156106b057600080fd5b505af11580156106c4573d6000803e3d6000fd5b505050506040513d601f19601f820116820180604052508101906106e89190610db0565b9050807fe0abfa81226f1e2ce09ba287cbb4c241e89b2b891a389274bb7d9c46e344daf060405160405180910390a250505050565b6000600160009054906101000a900473ffffffffffffffffffffffffffffffffffffffff16905090565b6000600163ffffffff16905090565b60008080549050905090565b60006060600080600181111561077b5761077a6112de565b5b600160159054906101000a900460ff16600181111561079d5761079c6112de565b5b14905060007f0000000000000000000000000000000000000000000000000000000000000000600254426107d191906110ff565b119050600080600080549050119050600080471190508380156107f15750825b80156107fa5750815b80156108035750805b955050505050915091565b6000600254905090565b60007f0000000000000000000000000000000000000000000000000000000000000000905090565b60008082815481106108555761085461130d565b5b9060005260206000200160009054906101000a900473ffffffffffffffffffffffffffffffffffffffff169050919050565b60008080549050826000815181106108a2576108a161130d565b5b60200260200101516108b4919061124f565b905060008082815481106108cb576108ca61130d565b5b9060005260206000200160009054906101000a900473ffffffffffffffffffffffffffffffffffffffff16905080600160006101000a81548173ffffffffffffffffffffffffffffffffffffffff021916908373ffffffffffffffffffffffffffffffffffffffff1602179055506000600160156101000a81548160ff0219169083600181111561095f5761095e6112de565b5b0217905550600067ffffffffffffffff81111561097f5761097e61133c565b5b6040519080825280602002602001820160405280156109ad5781602001602082028036833780820191505090505b50600090805190602001906109c3929190610ab8565b504260028190555060008173ffffffffffffffffffffffffffffffffffffffff16476040516109f190610f0d565b60006040518083038185875af1925050503d8060008114610a2e576040519150601f19603f3d011682016040523d82523d6000602084013e610a33565b606091505b5050905080610a6e576040517fba31c4f300000000000000000000000000000000000000000000000000000000815260040160405180910390fd5b8173ffffffffffffffffffffffffffffffffffffffff167f5b690ec4a06fe979403046eaeea5b3ce38524683c3001f662c8b5a829632f7df60405160405180910390a25050505050565b828054828255906000526020600020908101928215610b31579160200282015b82811115610b305782518260006101000a81548173ffffffffffffffffffffffffffffffffffffffff021916908373ffffffffffffffffffffffffffffffffffffffff16021790555091602001919060010190610ad8565b5b509050610b3e9190610b42565b5090565b5b80821115610b5b576000816000905550600101610b43565b5090565b6000610b72610b6d8461107b565b611056565b90508083825260208201905082856020860282011115610b9557610b94611375565b5b60005b85811015610bc55781610bab8882610cc3565b845260208401935060208301925050600181019050610b98565b5050509392505050565b6000610be2610bdd846110a7565b611056565b905082815260208101848484011115610bfe57610bfd61137a565b5b610c098482856111dc565b509392505050565b600082601f830112610c2657610c25611370565b5b8135610c36848260208601610b5f565b91505092915050565b60008083601f840112610c5557610c54611370565b5b8235905067ffffffffffffffff811115610c7257610c7161136b565b5b602083019150836001820283011115610c8e57610c8d611375565b5b9250929050565b600082601f830112610caa57610ca9611370565b5b8135610cba848260208601610bcf565b91505092915050565b600081359050610cd2816113b1565b92915050565b600081519050610ce7816113b1565b92915050565b60008060208385031215610d0457610d03611384565b5b600083013567ffffffffffffffff811115610d2257610d2161137f565b5b610d2e85828601610c3f565b92509250509250929050565b600060208284031215610d5057610d4f611384565b5b600082013567ffffffffffffffff811115610d6e57610d6d61137f565b5b610d7a84828501610c95565b91505092915050565b600060208284031215610d9957610d98611384565b5b6000610da784828501610cc3565b91505092915050565b600060208284031215610dc657610dc5611384565b5b6000610dd484828501610cd8565b91505092915050565b60008060408385031215610df457610df3611384565b5b6000610e0285828601610cc3565b925050602083013567ffffffffffffffff811115610e2357610e2261137f565b5b610e2f85828601610c11565b9150509250929050565b610e4281611133565b82525050565b610e5181611145565b82525050565b610e6081611151565b82525050565b6000610e71826110d8565b610e7b81856110e3565b9350610e8b8185602086016111eb565b610e9481611389565b840191505092915050565b610ea8816111ca565b82525050565b6000610ebb6000836110f4565b9150610ec68261139a565b600082019050919050565b610eda8161116e565b82525050565b610ee98161119c565b82525050565b610ef8816111a6565b82525050565b610f07816111b6565b82525050565b6000610f1882610eae565b9150819050919050565b6000602082019050610f376000830184610e39565b92915050565b6000604082019050610f526000830185610e39565b610f5f6020830184610e39565b9392505050565b6000604082019050610f7b6000830185610e48565b8181036020830152610f8d8184610e66565b90509392505050565b600060a082019050610fab6000830188610e57565b610fb86020830187610efe565b610fc56040830186610ed1565b610fd26060830185610eef565b610fdf6080830184610eef565b9695505050505050565b6000602082019050610ffe6000830184610e9f565b92915050565b60006020820190506110196000830184610ee0565b92915050565b60006060820190506110346000830186610ee0565b6110416020830185610ee0565b61104e6040830184610ee0565b949350505050565b6000611060611071565b905061106c828261121e565b919050565b6000604051905090565b600067ffffffffffffffff8211156110965761109561133c565b5b602082029050602081019050919050565b600067ffffffffffffffff8211156110c2576110c161133c565b5b6110cb82611389565b9050602081019050919050565b600081519050919050565b600082825260208201905092915050565b600081905092915050565b600061110a8261119c565b91506111158361119c565b92508282101561112857611127611280565b5b828203905092915050565b600061113e8261117c565b9050919050565b60008115159050919050565b6000819050919050565b60008190506111698261139d565b919050565b600061ffff82169050919050565b600073ffffffffffffffffffffffffffffffffffffffff82169050919050565b6000819050919050565b600063ffffffff82169050919050565b600067ffffffffffffffff82169050919050565b60006111d58261115b565b9050919050565b82818337600083830152505050565b60005b838110156112095780820151818401526020810190506111ee565b83811115611218576000848401525b50505050565b61122782611389565b810181811067ffffffffffffffff821117156112465761124561133c565b5b80604052505050565b600061125a8261119c565b91506112658361119c565b925082611275576112746112af565b5b828206905092915050565b7f4e487b7100000000000000000000000000000000000000000000000000000000600052601160045260246000fd5b7f4e487b7100000000000000000000000000000000000000000000000000000000600052601260045260246000fd5b7f4e487b7100000000000000000000000000000000000000000000000000000000600052602160045260246000fd5b7f4e487b7100000000000000000000000000000000000000000000000000000000600052603260045260246000fd5b7f4e487b7100000000000000000000000000000000000000000000000000000000600052604160045260246000fd5b600080fd5b600080fd5b600080fd5b600080fd5b600080fd5b600080fd5b6000601f19601f8301169050919050565b50565b600281106113ae576113ad6112de565b5b50565b6113ba8161119c565b81146113c557600080fd5b5056fea264697066735822122053176c11a9ccfdc5a7b9eca351631f1b9c443c442d788aaf7fff4c89c025571864736f6c63430008070033",
  "linkReferences": {},
  "deployedLinkReferences": {}
}