{
  "_format": "hh-sol-artifact-1",
  "contractName": "Raffle",
  "sourceName": "contracts/Raffle.sol",
  "abi": [
    {
      "inputs": [
        {
          "internalType": "address",
          "name": "vrfCoordinatorV2",
          "type": "address"
        },
        {
          "internalType": "uint256",
          "name": "enteranceFee",
          "type": "uint256"
        },
        {
          "internalType": "bytes32",
          "name": "gas_lane",
          "type": "bytes32"
        },
        {
          "internalType": "uint64",
          "name": "subID",
          "type": "uint64"
        },
        {
          "internalType": "uint32",
          "name": "gaslimit",
          "type": "uint32"
        },
        {
          "internalType": "uint256",
          "name": "interval",
          "type": "uint256"
        }
      ],
      "stateMutability": "nonpayable",
      "type": "constructor"
    },
    {
      "inputs": [],
      "name": "Not_Enough_Eth_To_Participate",
      "type": "error"
    },
    {
      "inputs": [
        {
          "internalType": "address",
          "name": "have",
          "type": "address"
        },
        {
          "internalType": "address",
          "name": "want",
          "type": "address"
        }
      ],
      "name": "OnlyCoordinatorCanFulfill",
      "type": "error"
    },
    {
      "inputs": [],
      "name": "Raffle_TransferFailed",
      "type": "error"
    },
    {
      "inputs": [
        {
          "internalType": "uint256",
          "name": "currentBalance",
          "type": "uint256"
        },
        {
          "internalType": "uint256",
          "name": "numPlayers",
          "type": "uint256"
        },
        {
          "internalType": "uint256",
          "name": "RaffleState",
          "type": "uint256"
        }
      ],
      "name": "Raffle_UpkeepNotNeeded",
      "type": "error"
    },
    {
      "inputs": [],
      "name": "Raffle__NotOpen",
      "type": "error"
    },
    {
      "anonymous": false,
      "inputs": [
        {
          "indexed": true,
          "internalType": "address",
          "name": "recentWinner",
          "type": "address"
        }
      ],
      "name": "WinnerPicked",
      "type": "event"
    },
    {
      "anonymous": false,
      "inputs": [
        {
          "indexed": true,
          "internalType": "address",
          "name": "player",
          "type": "address"
        }
      ],
      "name": "raffleEnter",
      "type": "event"
    },
    {
      "anonymous": false,
      "inputs": [
        {
          "indexed": true,
          "internalType": "uint256",
          "name": "requestId",
          "type": "uint256"
        }
      ],
      "name": "requestedRaffleWinner",
      "type": "event"
    },
    {
      "inputs": [
        {
          "internalType": "bytes",
          "name": "",
          "type": "bytes"
        }
      ],
      "name": "checkUpkeep",
      "outputs": [
        {
          "internalType": "bool",
          "name": "upkeepNeeded",
          "type": "bool"
        },
        {
          "internalType": "bytes",
          "name": "",
          "type": "bytes"
        }
      ],
      "stateMutability": "nonpayable",
      "type": "function"
    },
    {
      "inputs": [],
      "name": "enterRaffle",
      "outputs": [],
      "stateMutability": "payable",
      "type": "function"
    },
    {
      "inputs": [],
      "name": "getEnteranceFee",
      "outputs": [
        {
          "internalType": "uint256",
          "name": "",
          "type": "uint256"
        }
      ],
      "stateMutability": "view",
      "type": "function"
    },
    {
      "inputs": [],
      "name": "getNumOfPlayers",
      "outputs": [
        {
          "internalType": "uint256",
          "name": "",
          "type": "uint256"
        }
      ],
      "stateMutability": "view",
      "type": "function"
    },
    {
      "inputs": [],
      "name": "getNumWords",
      "outputs": [
        {
          "internalType": "uint256",
          "name": "",
          "type": "uint256"
        }
      ],
      "stateMutability": "pure",
      "type": "function"
    },
    {
      "inputs": [
        {
          "internalType": "uint256",
          "name": "_index",
          "type": "uint256"
        }
      ],
      "name": "getPlayer",
      "outputs": [
        {
          "internalType": "address",
          "name": "",
          "type": "address"
        }
      ],
      "stateMutability": "view",
      "type": "function"
    },
    {
      "inputs": [],
      "name": "getPreviousTimeStamp",
      "outputs": [
        {
          "internalType": "uint256",
          "name": "",
          "type": "uint256"
        }
      ],
      "stateMutability": "view",
      "type": "function"
    },
    {
      "inputs": [],
      "name": "getRaffleState",
      "outputs": [
        {
          "internalType": "enum Raffle.RaffleState",
          "name": "",
          "type": "uint8"
        }
      ],
      "stateMutability": "view",
      "type": "function"
    },
    {
      "inputs": [],
      "name": "getRecentWinner",
      "outputs": [
        {
          "internalType": "address",
          "name": "",
          "type": "address"
        }
      ],
      "stateMutability": "view",
      "type": "function"
    },
    {
      "inputs": [
        {
          "internalType": "bytes",
          "name": "",
          "type": "bytes"
        }
      ],
      "name": "performUpkeep",
      "outputs": [],
      "stateMutability": "nonpayable",
      "type": "function"
    },
    {
      "inputs": [
        {
          "internalType": "uint256",
          "name": "requestId",
          "type": "uint256"
        },
        {
          "internalType": "uint256[]",
          "name": "randomWords",
          "type": "uint256[]"
        }
      ],
      "name": "rawFulfillRandomWords",
      "outputs": [],
      "stateMutability": "nonpayable",
      "type": "function"
    }
  ],
  "bytecode": "0x6101606040523480156200001257600080fd5b5060405162001780380380620017808339818101604052810190620000389190620001ad565b858073ffffffffffffffffffffffffffffffffffffffff1660808173ffffffffffffffffffffffffffffffffffffffff1660601b81525050508460a081815250508573ffffffffffffffffffffffffffffffffffffffff1660c08173ffffffffffffffffffffffffffffffffffffffff1660601b815250508360e081815250508267ffffffffffffffff166101008167ffffffffffffffff1660c01b815250508163ffffffff166101208163ffffffff1660e01b815250506000600160156101000a81548160ff02191690836001811115620001195762000118620002b5565b5b0217905550426002819055508061014081815250505050505050506200036b565b6000815190506200014b81620002e9565b92915050565b600081519050620001628162000303565b92915050565b60008151905062000179816200031d565b92915050565b600081519050620001908162000337565b92915050565b600081519050620001a78162000351565b92915050565b60008060008060008060c08789031215620001cd57620001cc620002e4565b5b6000620001dd89828a016200013a565b9650506020620001f089828a0162000168565b95505060406200020389828a0162000151565b94505060606200021689828a0162000196565b93505060806200022989828a016200017f565b92505060a06200023c89828a0162000168565b9150509295509295509295565b6000620002568262000267565b9050919050565b6000819050919050565b600073ffffffffffffffffffffffffffffffffffffffff82169050919050565b6000819050919050565b600063ffffffff82169050919050565b600067ffffffffffffffff82169050919050565b7f4e487b7100000000000000000000000000000000000000000000000000000000600052602160045260246000fd5b600080fd5b620002f48162000249565b81146200030057600080fd5b50565b6200030e816200025d565b81146200031a57600080fd5b50565b620003288162000287565b81146200033457600080fd5b50565b620003428162000291565b81146200034e57600080fd5b50565b6200035c81620002a1565b81146200036857600080fd5b50565b60805160601c60a05160c05160601c60e0516101005160c01c6101205160e01c610140516113a0620003e0600039600061076e015260006105f7015260006105d4015260006105b30152600061057701526000818161035301526106ed01526000818161029301526102e701526113a06000f3fe60806040526004361061009c5760003560e01c8063535bf50f11610064578063535bf50f1461015357806353a2c19a1461017e578063565429de146101a95780636e04ff0d146101d457806390272d5c14610212578063e55ae4e81461023d5761009c565b8063115cbaf5146100a15780631fe543e3146100cc5780632cfcc539146100f55780634585e33b146100ff578063473f1ddc14610128575b600080fd5b3480156100ad57600080fd5b506100b661027a565b6040516100c39190610f8b565b60405180910390f35b3480156100d857600080fd5b506100f360048036038101906100ee9190610d7f565b610291565b005b6100fd610351565b005b34801561010b57600080fd5b5061012660048036038101906101219190610c8f565b6104c0565b005b34801561013457600080fd5b5061013d6106bf565b60405161014a9190610ec4565b60405180910390f35b34801561015f57600080fd5b506101686106e9565b6040516101759190610fa6565b60405180910390f35b34801561018a57600080fd5b50610193610711565b6040516101a09190610fa6565b60405180910390f35b3480156101b557600080fd5b506101be610720565b6040516101cb9190610fa6565b60405180910390f35b3480156101e057600080fd5b506101fb60048036038101906101f69190610cdc565b61072c565b604051610209929190610f08565b60405180910390f35b34801561021e57600080fd5b506102276107d8565b6040516102349190610fa6565b60405180910390f35b34801561024957600080fd5b50610264600480360381019061025f9190610d25565b6107e2565b6040516102719190610ec4565b60405180910390f35b6000600160159054906101000a900460ff16905090565b7f000000000000000000000000000000000000000000000000000000000000000073ffffffffffffffffffffffffffffffffffffffff163373ffffffffffffffffffffffffffffffffffffffff161461034357337f00000000000000000000000000000000000000000000000000000000000000006040517f1cf993f400000000000000000000000000000000000000000000000000000000815260040161033a929190610edf565b60405180910390fd5b61034d8282610829565b5050565b7f00000000000000000000000000000000000000000000000000000000000000003410156103ab576040517f52c54f4e00000000000000000000000000000000000000000000000000000000815260040160405180910390fd5b600060018111156103bf576103be611280565b5b600160159054906101000a900460ff1660018111156103e1576103e0611280565b5b14610418576040517f1425571c00000000000000000000000000000000000000000000000000000000815260040160405180910390fd5b6000339080600181540180825580915050600190039060005260206000200160009091909190916101000a81548173ffffffffffffffffffffffffffffffffffffffff021916908373ffffffffffffffffffffffffffffffffffffffff1602179055503373ffffffffffffffffffffffffffffffffffffffff167f742d070bf0f3edace132a9da8ba725e8cf99c478869cee7f673ed6085e2f8e6460405160405180910390a2565b60006104da6040518060200160405280600081525061072c565b509050806105495747600080549050600160159054906101000a900460ff16600181111561050b5761050a611280565b5b6040517fe059521b00000000000000000000000000000000000000000000000000000000815260040161054093929190610fc1565b60405180910390fd5b60018060156101000a81548160ff0219169083600181111561056e5761056d611280565b5b021790555060007f000000000000000000000000000000000000000000000000000000000000000073ffffffffffffffffffffffffffffffffffffffff16635d3b1d307f00000000000000000000000000000000000000000000000000000000000000007f000000000000000000000000000000000000000000000000000000000000000060037f000000000000000000000000000000000000000000000000000000000000000060016040518663ffffffff1660e01b8152600401610638959493929190610f38565b602060405180830381600087803b15801561065257600080fd5b505af1158015610666573d6000803e3d6000fd5b505050506040513d601f19601f8201168201806040525081019061068a9190610d52565b9050807fe0abfa81226f1e2ce09ba287cbb4c241e89b2b891a389274bb7d9c46e344daf060405160405180910390a250505050565b6000600160009054906101000a900473ffffffffffffffffffffffffffffffffffffffff16905090565b60007f0000000000000000000000000000000000000000000000000000000000000000905090565b6000600163ffffffff16905090565b60008080549050905090565b60006060600080600181111561074557610744611280565b5b600160159054906101000a900460ff16600181111561076757610766611280565b5b14905060007f00000000000000000000000000000000000000000000000000000000000000006002544261079b91906110a1565b119050600080600080549050119050600080471190508380156107bb5750825b80156107c45750815b80156107cd5750805b955050505050915091565b6000600254905090565b60008082815481106107f7576107f66112af565b5b9060005260206000200160009054906101000a900473ffffffffffffffffffffffffffffffffffffffff169050919050565b6000808054905082600081518110610844576108436112af565b5b602002602001015161085691906111f1565b9050600080828154811061086d5761086c6112af565b5b9060005260206000200160009054906101000a900473ffffffffffffffffffffffffffffffffffffffff16905080600160006101000a81548173ffffffffffffffffffffffffffffffffffffffff021916908373ffffffffffffffffffffffffffffffffffffffff1602179055506000600160156101000a81548160ff0219169083600181111561090157610900611280565b5b0217905550600067ffffffffffffffff811115610921576109206112de565b5b60405190808252806020026020018201604052801561094f5781602001602082028036833780820191505090505b5060009080519060200190610965929190610a5a565b504260028190555060008173ffffffffffffffffffffffffffffffffffffffff164760405161099390610eaf565b60006040518083038185875af1925050503d80600081146109d0576040519150601f19603f3d011682016040523d82523d6000602084013e6109d5565b606091505b5050905080610a10576040517fba31c4f300000000000000000000000000000000000000000000000000000000815260040160405180910390fd5b8173ffffffffffffffffffffffffffffffffffffffff167f5b690ec4a06fe979403046eaeea5b3ce38524683c3001f662c8b5a829632f7df60405160405180910390a25050505050565b828054828255906000526020600020908101928215610ad3579160200282015b82811115610ad25782518260006101000a81548173ffffffffffffffffffffffffffffffffffffffff021916908373ffffffffffffffffffffffffffffffffffffffff16021790555091602001919060010190610a7a565b5b509050610ae09190610ae4565b5090565b5b80821115610afd576000816000905550600101610ae5565b5090565b6000610b14610b0f8461101d565b610ff8565b90508083825260208201905082856020860282011115610b3757610b36611317565b5b60005b85811015610b675781610b4d8882610c65565b845260208401935060208301925050600181019050610b3a565b5050509392505050565b6000610b84610b7f84611049565b610ff8565b905082815260208101848484011115610ba057610b9f61131c565b5b610bab84828561117e565b509392505050565b600082601f830112610bc857610bc7611312565b5b8135610bd8848260208601610b01565b91505092915050565b60008083601f840112610bf757610bf6611312565b5b8235905067ffffffffffffffff811115610c1457610c1361130d565b5b602083019150836001820283011115610c3057610c2f611317565b5b9250929050565b600082601f830112610c4c57610c4b611312565b5b8135610c5c848260208601610b71565b91505092915050565b600081359050610c7481611353565b92915050565b600081519050610c8981611353565b92915050565b60008060208385031215610ca657610ca5611326565b5b600083013567ffffffffffffffff811115610cc457610cc3611321565b5b610cd085828601610be1565b92509250509250929050565b600060208284031215610cf257610cf1611326565b5b600082013567ffffffffffffffff811115610d1057610d0f611321565b5b610d1c84828501610c37565b91505092915050565b600060208284031215610d3b57610d3a611326565b5b6000610d4984828501610c65565b91505092915050565b600060208284031215610d6857610d67611326565b5b6000610d7684828501610c7a565b91505092915050565b60008060408385031215610d9657610d95611326565b5b6000610da485828601610c65565b925050602083013567ffffffffffffffff811115610dc557610dc4611321565b5b610dd185828601610bb3565b9150509250929050565b610de4816110d5565b82525050565b610df3816110e7565b82525050565b610e02816110f3565b82525050565b6000610e138261107a565b610e1d8185611085565b9350610e2d81856020860161118d565b610e368161132b565b840191505092915050565b610e4a8161116c565b82525050565b6000610e5d600083611096565b9150610e688261133c565b600082019050919050565b610e7c81611110565b82525050565b610e8b8161113e565b82525050565b610e9a81611148565b82525050565b610ea981611158565b82525050565b6000610eba82610e50565b9150819050919050565b6000602082019050610ed96000830184610ddb565b92915050565b6000604082019050610ef46000830185610ddb565b610f016020830184610ddb565b9392505050565b6000604082019050610f1d6000830185610dea565b8181036020830152610f2f8184610e08565b90509392505050565b600060a082019050610f4d6000830188610df9565b610f5a6020830187610ea0565b610f676040830186610e73565b610f746060830185610e91565b610f816080830184610e91565b9695505050505050565b6000602082019050610fa06000830184610e41565b92915050565b6000602082019050610fbb6000830184610e82565b92915050565b6000606082019050610fd66000830186610e82565b610fe36020830185610e82565b610ff06040830184610e82565b949350505050565b6000611002611013565b905061100e82826111c0565b919050565b6000604051905090565b600067ffffffffffffffff821115611038576110376112de565b5b602082029050602081019050919050565b600067ffffffffffffffff821115611064576110636112de565b5b61106d8261132b565b9050602081019050919050565b600081519050919050565b600082825260208201905092915050565b600081905092915050565b60006110ac8261113e565b91506110b78361113e565b9250828210156110ca576110c9611222565b5b828203905092915050565b60006110e08261111e565b9050919050565b60008115159050919050565b6000819050919050565b600081905061110b8261133f565b919050565b600061ffff82169050919050565b600073ffffffffffffffffffffffffffffffffffffffff82169050919050565b6000819050919050565b600063ffffffff82169050919050565b600067ffffffffffffffff82169050919050565b6000611177826110fd565b9050919050565b82818337600083830152505050565b60005b838110156111ab578082015181840152602081019050611190565b838111156111ba576000848401525b50505050565b6111c98261132b565b810181811067ffffffffffffffff821117156111e8576111e76112de565b5b80604052505050565b60006111fc8261113e565b91506112078361113e565b92508261121757611216611251565b5b828206905092915050565b7f4e487b7100000000000000000000000000000000000000000000000000000000600052601160045260246000fd5b7f4e487b7100000000000000000000000000000000000000000000000000000000600052601260045260246000fd5b7f4e487b7100000000000000000000000000000000000000000000000000000000600052602160045260246000fd5b7f4e487b7100000000000000000000000000000000000000000000000000000000600052603260045260246000fd5b7f4e487b7100000000000000000000000000000000000000000000000000000000600052604160045260246000fd5b600080fd5b600080fd5b600080fd5b600080fd5b600080fd5b600080fd5b6000601f19601f8301169050919050565b50565b600281106113505761134f611280565b5b50565b61135c8161113e565b811461136757600080fd5b5056fea26469706673582212200753ed4056e3130d16fbf2c4d7079f9983182cc7dc874794868d158e99080c3564736f6c63430008070033",
  "linkReferences": {},
  "deployedLinkReferences": {}
}